{
  "_format": "hh-sol-artifact-1",
  "contractName": "GoodsTransaction",
  "sourceName": "contracts/GoodsTransaction.sol",
  "abi": [
    {
      "anonymous": false,
      "inputs": [
        {
          "indexed": true,
          "internalType": "uint256",
          "name": "goodsId",
          "type": "uint256"
        },
        {
          "indexed": true,
          "internalType": "address",
          "name": "farmer",
          "type": "address"
        },
        {
          "indexed": true,
          "internalType": "address",
          "name": "warehouse",
          "type": "address"
        },
        {
          "indexed": false,
          "internalType": "string",
          "name": "goods",
          "type": "string"
        },
        {
          "indexed": false,
          "internalType": "uint256",
          "name": "quantity",
          "type": "uint256"
        },
        {
          "indexed": false,
          "internalType": "uint256",
          "name": "paymentAmount",
          "type": "uint256"
        },
        {
          "indexed": false,
          "internalType": "uint256",
          "name": "timestamp",
          "type": "uint256"
        }
      ],
      "name": "GoodsAdded",
      "type": "event"
    },
    {
      "anonymous": false,
      "inputs": [
        {
          "indexed": true,
          "internalType": "uint256",
          "name": "goodsId",
          "type": "uint256"
        },
        {
          "indexed": true,
          "internalType": "address",
          "name": "farmer",
          "type": "address"
        },
        {
          "indexed": true,
          "internalType": "address",
          "name": "warehouse",
          "type": "address"
        },
        {
          "indexed": false,
          "internalType": "uint256",
          "name": "paymentAmount",
          "type": "uint256"
        },
        {
          "indexed": false,
          "internalType": "uint256",
          "name": "timestamp",
          "type": "uint256"
        }
      ],
      "name": "GoodsPaid",
      "type": "event"
    },
    {
      "inputs": [
        {
          "internalType": "address",
          "name": "warehouse",
          "type": "address"
        },
        {
          "internalType": "string",
          "name": "goods",
          "type": "string"
        },
        {
          "internalType": "uint256",
          "name": "quantity",
          "type": "uint256"
        },
        {
          "internalType": "uint256",
          "name": "paymentAmount",
          "type": "uint256"
        }
      ],
      "name": "addGoods",
      "outputs": [],
      "stateMutability": "nonpayable",
      "type": "function"
    },
    {
      "inputs": [],
      "name": "getAllGoods",
      "outputs": [
        {
          "components": [
            {
              "internalType": "address",
              "name": "farmer",
              "type": "address"
            },
            {
              "internalType": "address",
              "name": "warehouse",
              "type": "address"
            },
            {
              "internalType": "string",
              "name": "goods",
              "type": "string"
            },
            {
              "internalType": "uint256",
              "name": "quantity",
              "type": "uint256"
            },
            {
              "internalType": "uint256",
              "name": "paymentAmount",
              "type": "uint256"
            },
            {
              "internalType": "bool",
              "name": "isPaid",
              "type": "bool"
            },
            {
              "internalType": "uint256",
              "name": "timestamp",
              "type": "uint256"
            }
          ],
          "internalType": "struct GoodsTransaction.GoodsRecord[]",
          "name": "",
          "type": "tuple[]"
        }
      ],
      "stateMutability": "view",
      "type": "function"
    },
    {
      "inputs": [
        {
          "internalType": "uint256",
          "name": "goodsId",
          "type": "uint256"
        }
      ],
      "name": "getGoods",
      "outputs": [
        {
          "components": [
            {
              "internalType": "address",
              "name": "farmer",
              "type": "address"
            },
            {
              "internalType": "address",
              "name": "warehouse",
              "type": "address"
            },
            {
              "internalType": "string",
              "name": "goods",
              "type": "string"
            },
            {
              "internalType": "uint256",
              "name": "quantity",
              "type": "uint256"
            },
            {
              "internalType": "uint256",
              "name": "paymentAmount",
              "type": "uint256"
            },
            {
              "internalType": "bool",
              "name": "isPaid",
              "type": "bool"
            },
            {
              "internalType": "uint256",
              "name": "timestamp",
              "type": "uint256"
            }
          ],
          "internalType": "struct GoodsTransaction.GoodsRecord",
          "name": "",
          "type": "tuple"
        }
      ],
      "stateMutability": "view",
      "type": "function"
    },
    {
      "inputs": [],
      "name": "getGoodsCount",
      "outputs": [
        {
          "internalType": "uint256",
          "name": "",
          "type": "uint256"
        }
      ],
      "stateMutability": "view",
      "type": "function"
    },
    {
      "inputs": [
        {
          "internalType": "uint256",
          "name": "goodsId",
          "type": "uint256"
        }
      ],
      "name": "payForGoods",
      "outputs": [],
      "stateMutability": "payable",
      "type": "function"
    }
  ],
  "bytecode": "0x608060405234801561001057600080fd5b50611a06806100206000396000f3fe60806040526004361061004a5760003560e01c8063b25900331461004f578063ba821ad71461008c578063c1f31d0d146100b5578063e26d15e4146100e0578063e9fa63d4146100fc575b600080fd5b34801561005b57600080fd5b5061007660048036038101906100719190610c66565b610127565b6040516100839190610e2a565b60405180910390f35b34801561009857600080fd5b506100b360048036038101906100ae9190610edd565b610321565b005b3480156100c157600080fd5b506100ca61069d565b6040516100d79190610f74565b60405180910390f35b6100fa60048036038101906100f59190610c66565b6106a9565b005b34801561010857600080fd5b506101116109e5565b60405161011e91906110ed565b60405180910390f35b61012f610bbb565b6000805490508210610176576040517f08c379a000000000000000000000000000000000000000000000000000000000815260040161016d9061116c565b60405180910390fd5b6000828154811061018a5761018961118c565b5b90600052602060002090600702016040518060e00160405290816000820160009054906101000a900473ffffffffffffffffffffffffffffffffffffffff1673ffffffffffffffffffffffffffffffffffffffff1673ffffffffffffffffffffffffffffffffffffffff1681526020016001820160009054906101000a900473ffffffffffffffffffffffffffffffffffffffff1673ffffffffffffffffffffffffffffffffffffffff1673ffffffffffffffffffffffffffffffffffffffff16815260200160028201805461025f906111ea565b80601f016020809104026020016040519081016040528092919081815260200182805461028b906111ea565b80156102d85780601f106102ad576101008083540402835291602001916102d8565b820191906000526020600020905b8154815290600101906020018083116102bb57829003601f168201915b5050505050815260200160038201548152602001600482015481526020016005820160009054906101000a900460ff161515151581526020016006820154815250509050919050565b600073ffffffffffffffffffffffffffffffffffffffff168573ffffffffffffffffffffffffffffffffffffffff1603610390576040517f08c379a000000000000000000000000000000000000000000000000000000000815260040161038790611267565b60405180910390fd5b600084849050116103d6576040517f08c379a00000000000000000000000000000000000000000000000000000000081526004016103cd906112d3565b60405180910390fd5b60008211610419576040517f08c379a000000000000000000000000000000000000000000000000000000000815260040161041090611365565b60405180910390fd5b6000811161045c576040517f08c379a0000000000000000000000000000000000000000000000000000000008152600401610453906113f7565b60405180910390fd5b60006040518060e001604052803373ffffffffffffffffffffffffffffffffffffffff1681526020018773ffffffffffffffffffffffffffffffffffffffff16815260200186868080601f016020809104026020016040519081016040528093929190818152602001838380828437600081840152601f19601f82011690508083019250505050505050815260200184815260200183815260200160001515815260200142815250908060018154018082558091505060019003906000526020600020906007020160009091909190915060008201518160000160006101000a81548173ffffffffffffffffffffffffffffffffffffffff021916908373ffffffffffffffffffffffffffffffffffffffff16021790555060208201518160010160006101000a81548173ffffffffffffffffffffffffffffffffffffffff021916908373ffffffffffffffffffffffffffffffffffffffff16021790555060408201518160020190816105d091906115f2565b50606082015181600301556080820151816004015560a08201518160050160006101000a81548160ff02191690831515021790555060c0820151816006015550506000600160008054905061062591906116f3565b90508573ffffffffffffffffffffffffffffffffffffffff163373ffffffffffffffffffffffffffffffffffffffff16827f89e42efd3f395b896d3f138f29b49b0665f7caa86c0e5a38794d04c9aa51ed39888888884260405161068d959493929190611763565b60405180910390a4505050505050565b60008080549050905090565b60008054905081106106f0576040517f08c379a00000000000000000000000000000000000000000000000000000000081526004016106e79061116c565b60405180910390fd5b60008082815481106107055761070461118c565b5b906000526020600020906007020190508060050160009054906101000a900460ff1615610767576040517f08c379a000000000000000000000000000000000000000000000000000000000815260040161075e906117fd565b60405180910390fd5b8060010160009054906101000a900473ffffffffffffffffffffffffffffffffffffffff1673ffffffffffffffffffffffffffffffffffffffff163373ffffffffffffffffffffffffffffffffffffffff16146107f9576040517f08c379a00000000000000000000000000000000000000000000000000000000081526004016107f090611869565b60405180910390fd5b8060040154341461083f576040517f08c379a0000000000000000000000000000000000000000000000000000000008152600401610836906118d5565b60405180910390fd5b60018160050160006101000a81548160ff02191690831515021790555060008160000160009054906101000a900473ffffffffffffffffffffffffffffffffffffffff1673ffffffffffffffffffffffffffffffffffffffff16346040516108a690611926565b60006040518083038185875af1925050503d80600081146108e3576040519150601f19603f3d011682016040523d82523d6000602084013e6108e8565b606091505b505090508061092c576040517f08c379a000000000000000000000000000000000000000000000000000000000815260040161092390611987565b60405180910390fd5b8160010160009054906101000a900473ffffffffffffffffffffffffffffffffffffffff1673ffffffffffffffffffffffffffffffffffffffff168260000160009054906101000a900473ffffffffffffffffffffffffffffffffffffffff1673ffffffffffffffffffffffffffffffffffffffff16847f98552fbff0c52455cc3bfde24226bfd82cc7c1e1f1068477c4c986608afaa17e8560040154426040516109d89291906119a7565b60405180910390a4505050565b60606000805480602002602001604051908101604052809291908181526020016000905b82821015610bb257838290600052602060002090600702016040518060e00160405290816000820160009054906101000a900473ffffffffffffffffffffffffffffffffffffffff1673ffffffffffffffffffffffffffffffffffffffff1673ffffffffffffffffffffffffffffffffffffffff1681526020016001820160009054906101000a900473ffffffffffffffffffffffffffffffffffffffff1673ffffffffffffffffffffffffffffffffffffffff1673ffffffffffffffffffffffffffffffffffffffff168152602001600282018054610ae8906111ea565b80601f0160208091040260200160405190810160405280929190818152602001828054610b14906111ea565b8015610b615780601f10610b3657610100808354040283529160200191610b61565b820191906000526020600020905b815481529060010190602001808311610b4457829003601f168201915b5050505050815260200160038201548152602001600482015481526020016005820160009054906101000a900460ff1615151515815260200160068201548152505081526020019060010190610a09565b50505050905090565b6040518060e00160405280600073ffffffffffffffffffffffffffffffffffffffff168152602001600073ffffffffffffffffffffffffffffffffffffffff168152602001606081526020016000815260200160008152602001600015158152602001600081525090565b600080fd5b600080fd5b6000819050919050565b610c4381610c30565b8114610c4e57600080fd5b50565b600081359050610c6081610c3a565b92915050565b600060208284031215610c7c57610c7b610c26565b5b6000610c8a84828501610c51565b91505092915050565b600073ffffffffffffffffffffffffffffffffffffffff82169050919050565b6000610cbe82610c93565b9050919050565b610cce81610cb3565b82525050565b600081519050919050565b600082825260208201905092915050565b60005b83811015610d0e578082015181840152602081019050610cf3565b60008484015250505050565b6000601f19601f8301169050919050565b6000610d3682610cd4565b610d408185610cdf565b9350610d50818560208601610cf0565b610d5981610d1a565b840191505092915050565b610d6d81610c30565b82525050565b60008115159050919050565b610d8881610d73565b82525050565b600060e083016000830151610da66000860182610cc5565b506020830151610db96020860182610cc5565b5060408301518482036040860152610dd18282610d2b565b9150506060830151610de66060860182610d64565b506080830151610df96080860182610d64565b5060a0830151610e0c60a0860182610d7f565b5060c0830151610e1f60c0860182610d64565b508091505092915050565b60006020820190508181036000830152610e448184610d8e565b905092915050565b610e5581610cb3565b8114610e6057600080fd5b50565b600081359050610e7281610e4c565b92915050565b600080fd5b600080fd5b600080fd5b60008083601f840112610e9d57610e9c610e78565b5b8235905067ffffffffffffffff811115610eba57610eb9610e7d565b5b602083019150836001820283011115610ed657610ed5610e82565b5b9250929050565b600080600080600060808688031215610ef957610ef8610c26565b5b6000610f0788828901610e63565b955050602086013567ffffffffffffffff811115610f2857610f27610c2b565b5b610f3488828901610e87565b94509450506040610f4788828901610c51565b9250506060610f5888828901610c51565b9150509295509295909350565b610f6e81610c30565b82525050565b6000602082019050610f896000830184610f65565b92915050565b600081519050919050565b600082825260208201905092915050565b6000819050602082019050919050565b600060e083016000830151610fd36000860182610cc5565b506020830151610fe66020860182610cc5565b5060408301518482036040860152610ffe8282610d2b565b91505060608301516110136060860182610d64565b5060808301516110266080860182610d64565b5060a083015161103960a0860182610d7f565b5060c083015161104c60c0860182610d64565b508091505092915050565b60006110638383610fbb565b905092915050565b6000602082019050919050565b600061108382610f8f565b61108d8185610f9a565b93508360208202850161109f85610fab565b8060005b858110156110db57848403895281516110bc8582611057565b94506110c78361106b565b925060208a019950506001810190506110a3565b50829750879550505050505092915050565b600060208201905081810360008301526111078184611078565b905092915050565b600082825260208201905092915050565b7f476f6f6473207265636f726420646f6573206e6f742065786973740000000000600082015250565b6000611156601b8361110f565b915061116182611120565b602082019050919050565b6000602082019050818103600083015261118581611149565b9050919050565b7f4e487b7100000000000000000000000000000000000000000000000000000000600052603260045260246000fd5b7f4e487b7100000000000000000000000000000000000000000000000000000000600052602260045260246000fd5b6000600282049050600182168061120257607f821691505b602082108103611215576112146111bb565b5b50919050565b7f57617265686f7573652061646472657373206973207265717569726564000000600082015250565b6000611251601d8361110f565b915061125c8261121b565b602082019050919050565b6000602082019050818103600083015261128081611244565b9050919050565b7f476f6f6473206e616d6520697320726571756972656400000000000000000000600082015250565b60006112bd60168361110f565b91506112c882611287565b602082019050919050565b600060208201905081810360008301526112ec816112b0565b9050919050565b7f5175616e74697479206d7573742062652067726561746572207468616e207a6560008201527f726f000000000000000000000000000000000000000000000000000000000000602082015250565b600061134f60228361110f565b915061135a826112f3565b604082019050919050565b6000602082019050818103600083015261137e81611342565b9050919050565b7f5061796d656e7420616d6f756e74206d7573742062652067726561746572207460008201527f68616e207a65726f000000000000000000000000000000000000000000000000602082015250565b60006113e160288361110f565b91506113ec82611385565b604082019050919050565b60006020820190508181036000830152611410816113d4565b9050919050565b7f4e487b7100000000000000000000000000000000000000000000000000000000600052604160045260246000fd5b60008190508160005260206000209050919050565b60006020601f8301049050919050565b600082821b905092915050565b6000600883026114a87fffffffffffffffffffffffffffffffffffffffffffffffffffffffffffffffff8261146b565b6114b2868361146b565b95508019841693508086168417925050509392505050565b6000819050919050565b60006114ef6114ea6114e584610c30565b6114ca565b610c30565b9050919050565b6000819050919050565b611509836114d4565b61151d611515826114f6565b848454611478565b825550505050565b600090565b611532611525565b61153d818484611500565b505050565b5b818110156115615761155660008261152a565b600181019050611543565b5050565b601f8211156115a65761157781611446565b6115808461145b565b8101602085101561158f578190505b6115a361159b8561145b565b830182611542565b50505b505050565b600082821c905092915050565b60006115c9600019846008026115ab565b1980831691505092915050565b60006115e283836115b8565b9150826002028217905092915050565b6115fb82610cd4565b67ffffffffffffffff81111561161457611613611417565b5b61161e82546111ea565b611629828285611565565b600060209050601f83116001811461165c576000841561164a578287015190505b61165485826115d6565b8655506116bc565b601f19841661166a86611446565b60005b828110156116925784890151825560018201915060208501945060208101905061166d565b868310156116af57848901516116ab601f8916826115b8565b8355505b6001600288020188555050505b505050505050565b7f4e487b7100000000000000000000000000000000000000000000000000000000600052601160045260246000fd5b60006116fe82610c30565b915061170983610c30565b9250828203905081811115611721576117206116c4565b5b92915050565b82818337600083830152505050565b6000611742838561110f565b935061174f838584611727565b61175883610d1a565b840190509392505050565b6000608082019050818103600083015261177e818789611736565b905061178d6020830186610f65565b61179a6040830185610f65565b6117a76060830184610f65565b9695505050505050565b7f476f6f647320616c726561647920706169640000000000000000000000000000600082015250565b60006117e760128361110f565b91506117f2826117b1565b602082019050919050565b60006020820190508181036000830152611816816117da565b9050919050565b7f4f6e6c79207468652077617265686f7573652063616e20706179000000000000600082015250565b6000611853601a8361110f565b915061185e8261181d565b602082019050919050565b6000602082019050818103600083015261188281611846565b9050919050565b7f496e636f7272656374207061796d656e7420616d6f756e740000000000000000600082015250565b60006118bf60188361110f565b91506118ca82611889565b602082019050919050565b600060208201905081810360008301526118ee816118b2565b9050919050565b600081905092915050565b50565b60006119106000836118f5565b915061191b82611900565b600082019050919050565b600061193182611903565b9150819050919050565b7f455448207472616e73666572206661696c656400000000000000000000000000600082015250565b600061197160138361110f565b915061197c8261193b565b602082019050919050565b600060208201905081810360008301526119a081611964565b9050919050565b60006040820190506119bc6000830185610f65565b6119c96020830184610f65565b939250505056fea2646970667358221220b2910acf7ed4b8570305b6cdea4cd95b864c4b0c53d9830b47c02d1407e015c364736f6c63430008140033",
  "linkReferences": {},
  "deployedLinkReferences": {}
}